:020000040800F2
:1000000088350020DD010008614000082133000828
:10001000FD3E00082D0E0008B14E00080000000053
:100020000000000000000000000000004501000882
:10003000A71100080000000089010008CD47000852
:10004000F7010008F7010008F7010008F7010008B0
:10005000F7010008F7010008F7010008F7010008A0
:10006000F7010008A9110008F70100084111000874
:10007000F70100084D110008F701000859110008A8
:100080006511000871110008F7010008F701000868
:10009000F7010008F7010008F7010008F701000860
:1000A000F7010008F7010008F7010008F701000850
:1000B000F7010008F7010008F7010008F701000840
:1000C000F7010008F7010008F7010008F701000830
:1000D000F7010008294E0008414E0008594E00085B
:1000E000F7010008F7010008F7010008F701000810
:1000F000F7010008F7010008F7010008F701000800
:10010000F7010008F7010008F70100081945000889
:10011000F7010008F7010008F7010008A5480008EA
:10012000F7010008F7010008F7010008F7010008CF
:10013000DFF80CD000F028FD00480047695D00089A
:1001400088350020224B19680868B0E8F00F80F36A
:100150000988BFF36F8F4FF0000080F311884EF0D5
:100160000D0E70470000000006480068006880F32C
:10017000088862B661B6BFF34F8FBFF36F8F00DFA1
:1001800000BF00BF08ED00E0EFF30980BFF36F8F01
:100190000F4B1A6820E9F00F106008B54FF05000BF
:1001A00080F31188BFF34F8FBFF36F8F07F00AF909
:1001B0004FF0000080F31188BDE808401968086816
:1001C000B0E8F00F80F30988BFF36F8F704700BF6E
:1001D00060010020EFF3058070470000064880476B
:1001E00006480047FEE7FEE7FEE7FEE7FEE7FEE71C
:1001F000FEE7FEE7FEE7FEE75D4800083101000884
:10020000202A04DB203A21FA02F00021704721FA6B
:1002100002F3D040C2F120029140084319467047D2
:1002200040EA01039B0703D009E008C9121F08C078
:10023000042AFAD203E011F8013B00F8013B521EF8
:10024000F9D27047D2B201E000F8012B491EFBD26F
:1002500070470022F6E710B513460A4604461946D1
:10026000FFF7F0FF204610BD30B505462A460B4685
:1002700012F8010B13F8014B08B1A042F8D01CB1E1
:10028000002802D06D1CF1E7284630BD421C10F852
:10029000011B0029FBD1801A7047F0B480EA0102EB
:1002A000D40F4200B2EB410F02D20246084611467B
:1002B0004A0042D0C30DDDB2C1F3C752AD1A202DA2
:1002C00035DAC1F3160141F4000204B15242C5F11E
:1002D000200602FA06F12A411044B3EBD05F23D086
:1002E000C4B1012DA0EBC35009DCF0BC4FF00042BB
:1002F00002EAC352DBB200F5000000F0A2BB4000EE
:1003000000F1807000EBC350A0F1807040EAD17022
:10031000490009E0490841EAC071A0EBC35000F56B
:100320000000400800EBC350F0BC00F081BB61420C
:10033000012202EB4101001BF6E7F0BC704781F09F
:100340000041AAE780F00040A7E780EA010210B56B
:1003500002F00043400022D04A001FD0010E01EB02
:100360001261C0F35600C2F3560240F4000042F49A
:100370000002A0FB022000047F39140400D0401CBE
:1003800050EA124001D44000491EC2B20C0604EBF0
:10039000D010401C4008802A02D003E0002010BD8D
:1003A00020F00100002900DA0020184310BD30B40D
:1003B00080EA010202F0004530F0004221F00040E6
:1003C00013D090B1C30DD40DC2F31601C0F31600C3
:1003D000E41A41F4000140F400027D34914201D35B
:1003E000641C00E04900002C02DA30BC0020704799
:1003F0004FF400000023914201D3891A03434008BF
:100400004FEA4101F7D151B1914202D14FF0004181
:1004100005E002D24FF0010101E06FF0010103EBB2
:10042000C450284430BC00F003BB420005D0C0F3E8
:10043000C7525242914201DC0020704700EBC1508C
:1004400070472DE9FE4F804681EA0300C00F0C463D
:10045000009021F0004123F00045B8EB0200A941D3
:1004600005D24046214690461C460B46024623F0E4
:100470000040104347D0270DC7F30A00C3F30A51C9
:100480000290401A019040286BDAC3F3130040F445
:10049000801B0098924620B10023D2EB030A63EB45
:1004A0000B0B01985946C0F14002504600F09FFAEC
:1004B00006460D4650465946019A00F0A7FA10EB41
:1004C00008006141002487EA115284EAE7731A4365
:1004D00040D0009A62B3019A012A4FEA075215DC14
:1004E000001B61EB02014FF0004202EA0752CDE926
:1004F0000042001C41F5801132462B4600F0DEFA26
:1005000003B0BDE8F08F40462146F9E7001B61EBE0
:100510000201001C41F5801300185B412018A2F570
:10052000001747EB030140EAD570B6196D4111E0A1
:100530006D084FEA360645EAC0754FEA0752001BC0
:1005400061EB0201001C41F5801149084FEA3000BF
:100550000019514132462B4603B0BDE8F04F00F080
:100560009EBA0098012240000023D0EB020263EB08
:10057000E073009821464FEAE074B8EB000061EBAD
:100580000401E9E783F000435BE781F0004158E7AD
:100590002DE9FE4F81EA030404F0004421F00041FC
:1005A00000944FF0000B23F0004350EA01045ED0AA
:1005B00052EA03045BD0C3F30A54C1F30A552C4436
:1005C000A4F2F3340194A0FB0254C1F3130141F4EB
:1005D0008011C3F3130343F4801301FB024400FBB7
:1005E000034E840A970A44EA815447EA8357A4FBDE
:1005F000076802958D0A05FB07854FEA932C04FBDB
:100600000C542705029D4FEA065847EA1637B5EB0A
:1006100008056EEB070C870E920E47EA811742EA37
:100620008312A7FB0201B6EB0B0164EB00042B0D58
:1006300043EA0C335E1844EB1C50DA465146E7FBA4
:100640000201C5F313044FEA0B3343EA14534FEA94
:100650000432019C43EA0603A4F10C040294009CBA
:10066000CDE900B400F02AFA03B0BDE8F08F002015
:100670000146F9E72DE9F04D81EA030404F0004B4F
:1006800021F0004514464FF0000A23F0004150EAE3
:10069000050220D054EA01021DD0C5F30A570246D4
:1006A000C5F31303C1F31300C1F30A5640F48015D8
:1006B00043F48013A7EB0608101BD64608F2FD385A
:1006C00073EB050002D308F1010801E092185B41C9
:1006D000B8F1000F03DA00200146BDE8F08D0020DC
:1006E0004FF48011064684460EE0171B73EB050796
:1006F00005D3121B63EB050306434CEA010C4908C2
:100700004FEA300092185B4150EA0107EDD152EAFE
:10071000030012D082EA040083EA0501084305D0F1
:10072000101BAB4106D20122002306E000224FF04D
:10073000004302E06FF0010253101AEB06004CEB8D
:10074000085110EB0A0041EB0B01BDE8F04D00F041
:10075000A6B970B521F0004303430CD0C1F30A558C
:100760000024D5EB040564EB0403D617AD1AB3419E
:1007700002DB0020014670BD201841EB025170BD24
:10078000C10F80EAE0700844CA079623002100F0F8
:1007900058B996230022114600F053B90EB5C10F87
:1007A00080EAE0700844CA07002140F233438DE834
:1007B0000E000A460B4600F081F903B000BD0EB5ED
:1007C00040F2334102910021CDE900110A460B4667
:1007D00000F074F903B000BD00F0004220F00040CA
:1007E000C10DC0F3160040F400007F2901DA00209B
:1007F0007047962903DCC1F19601C84001E09639A3
:100800008840002AF4D04042704770B5C1F30A52C4
:1008100001F000450024C1F3130140F2FF3341F41D
:1008200080119A4201DA002070BD40F233439A42AF
:10083000A2F2334203DC5242FFF7E2FC00E09040B8
:100840002C43F1D0404270BDC1F30A5210B5C1F340
:10085000130140F2FF3341F480119A4201DA002083
:1008600010BD40F233439A42A2F2334203DC5242BB
:10087000FFF7C6FC10BD904010BD00F0004230F004
:1008800000400AD0C10D01F56071C0F3160042EAC4
:100890000151C208400711437047002001467047CC
:1008A00030B5041E71F1000404DB4FF000444042F7
:1008B00064EB0101141E73F1000405DB1C464FF0CC
:1008C0000043524263EB04038B4208BF824230BDB7
:1008D00030B5041E71F1000404DB4FF000444042C7
:1008E00064EB0101141E73F1000405DB1C464FF09C
:1008F0000043524263EB0403994208BF904230BD6B
:1009000001F0004330B421F0004150EA010206D06A
:100910000A0DA2F56072C1F31301002A02DC30BC9B
:1009200000207047440F44EAC104C100E01830BC05
:1009300000EBC25000F07CB8002801DBC0F10040A1
:10094000002901DBC1F1004181427047002801DB31
:10095000C0F10040002901DBC1F10041884270472D
:1009600030B50B46014600202022012409E021FA7F
:1009700002F59D4205D303FA02F5491B04FA02F57C
:100980002844151EA2F10102F1DC30BD2DE9F05F13
:100990000546002092469B468846064681464024EE
:1009A0001BE02846414647462246FFF729FC5346AE
:1009B0005A46C01A914110D311461846224600F0FB
:1009C00016F82D1A67EB01084F4622460120002138
:1009D00000F00DF817EB00094E41201EA4F10104B0
:1009E000DFDC484631462A464346BDE8F09F202AD0
:1009F00004DB203A00FA02F1002070479140C2F176
:100A0000200320FA03F3194390407047202A06DBA5
:100A1000CB17203A41FA02F043EAE07306E041FACC
:100A200002F3D040C2F120029140084319467047BA
:100A30000029A8BF7047401C490008BF20F00100F2
:100A4000704710B4B0FA80FC00FA0CF050EA0104D0
:100A500004BF10BC704749B1CCF1200421FA04F462
:100A600011FA0CF118BF012121430843A3EB0C013B
:100A7000CB1D4FEA00614FEA102042BF002010BC9E
:100A8000704700EBC35010440029A4BF10BC70474E
:100A9000401C490008BF20F0010010BC704710B591
:100AA000141E73F1000408DA401C41F10001921891
:100AB0005B411A4301D120F0010010BD2DE9F04D3A
:100AC00092469B4611B1B1FA81F202E0B0FA80F28F
:100AD00020329046FFF78BFF04460F4640EA0A009B
:100AE00041EA0B0153465A46084313D0114653EAD4
:100AF000010019D0C8F140025046FFF781FB0546BE
:100B00000E46504659464246FFF771FF084305D04E
:100B1000012004E020463946BDE8F08D0020054361
:100B200046EAE0762C4337430A986305E40AA0EBD3
:100B300008000022FD0A44EA47540A3002D500208A
:100B40000146E9E7010510196941DDE90845001989
:100B50006941BDE8F04DA2E7C1F30A52C1F31301A8
:100B600040F2FF3341F480119A4202DA002001463C
:100B7000704740F233439A42A2F2334202DC5242BF
:100B8000FFF73EBBFFF733BF064C074D06E0E068BA
:100B900040F0010394E8070098471034AC42F6D3C4
:100BA000FFF7CAFAA47F0008C47F00082DE9F04DC2
:100BB00000231A461B1A8A4103DB00200146BDE8C8
:100BC000F08DC1F30A52C1F3130141F480154FF0C7
:100BD000000BD10702D100186D41521E00270446B8
:100BE00040F2FF11384601EB620A3E46804602465B
:100BF00000204FF48011FFF703FBC2197141BB18AD
:100C000046EB0100B4EB030C75EB000C04D3E41AC3
:100C100065EB000517460E46241908F101006D41E9
:100C200080463428E3DDF91946EB0600091BA8418C
:100C300003D24FF0FF32134601E0002213461BEBB4
:100C4000070046EB0A51BDE8F04DFFF728BF70B52D
:100C50008C1810F8015B15F0070301D110F8013B67
:100C60002A1106D110F8012B03E010F8016B01F8EE
:100C7000016B5B1EF9D12B0705D40023521E0DD446
:100C800001F8013BFAE710F8013BCB1A921C03E094
:100C900013F8015B01F8015B521EF9D5A142D8D3CC
:100CA000002070BD70B5044600688168C943C9075B
:100CB0001BD1816821F00101816001F047F80546F0
:100CC0000EE001F043F8401B022809D9A06A40F069
:100CD0001000A062E06A40F00100E062012070BDF7
:100CE00020688068C043C007EBD0002070BD10B5FD
:100CF0000146406A826A12F0500F05D0006A026B0A
:100D0000BDE8104008461047816A41F400718162D5
:100D100001688968C1F3424107290CD1017B51B9AF
:100D2000816A21F480718162816AC90403D4816A75
:100D300041F00101816200F011FB10BD10B5406A65
:100D4000816A41F040018162C16A41F00401C162DF
:100D500000F006FB10BD10B5406A00F000FB10BDAE
:100D6000F8B500260446009600688168C943C907A3
:100D700027D0816841F00101816013481349006860
:100D8000B0FBF1F000E0401E00900028FBD100F025
:100D9000DDFF054610E000F0D9FF401B02280BD90B
:100DA000A06A40F01000A062E06A40F00100E0623A
:100DB00084F824600120F8BD20688068C043C00723
:100DC000E9D10020F8BD00001800002040420F00CB
:100DD00004490888052801D3052000E0401C08804C
:100DE000704700001801002010B503F0E9F903F086
:100DF0007DF900F011F803F04BFC02F0BDFB02F0AE
:100E000051FD00F095F906F095F803F033F9BDE8CF
:100E1000104003F0C9BC000064220249024800F0FF
:100E20007BBB000074070020C4010020FEE7000027
:100E30002DE9F04F9B4C8BB0DFF85C82D4E90201C6
:100E4000DFF85892DFF858B203F0CEFBDFF858A273
:100E5000DAF81400FFF7B3FC0022944BFFF798FB7D
:100E600005460E46E068FFF7AAFC2A463346FFF720
:100E700089FB06460F46DAF81800FFF7A0FC324659
:100E80003B46FFF785FB0022894BFFF7F3FB00226F
:100E90004346FFF7D6FA04460D46DAF81000FFF78E
:100EA0008EFC32463B46FFF773FB0022814BFFF777
:100EB000E1FBCDE90201DAF80800FFF780FC00222F
:100EC0007D4BFFF765FBDDE90223FFF7BAFA0291DC
:100ED0000690DAF80C00FFF772FC32463B46FFF74B
:100EE00057FB0022754BFFF7C5FBCDE90801DAF887
:100EF0000400FFF764FC00224FF08243FFF748FB39
:100F0000DDE90823FFF79DFACDE9080100224346F9
:100F100020462946FFF7C4FC4FF0000254D2D846C1
:100F2000434630463946FFF733FB32463B46FFF730
:100F30002FFB00224FF08443FFF79CFBCDE9040117
:100F40000022554B20462946FFF71CFB06460F465C
:100F500000224346FFF71CFB32463B46FFF718FBD7
:100F60006FF002084246FFF7F4FB834600913046DB
:100F7000394600224B46FFF70BFB32463B46FFF754
:100F800007FB4246FFF7E5FB8046894600224C4BB3
:100F900020462946FFF784FC23D20022494B2046F5
:100FA0002946FFF74EFA06468A4600223C4BFFF7D9
:100FB000EFFA32465346FFF7EBFA42464B46FFF74D
:100FC00040FA804689460CE0334B20462946FFF71D
:100FD0007FFC06D80020CDE9040083468046814688
:100FE0000090DDE9042320462946FFF7CBFA0022D2
:100FF000354BFFF73FFBCDE904015A46009B0299B0
:101000000698FFF7BFFA04468A46DDE90801424622
:101010004B46FFF7B7FA234E05460F46B068FFF779
:10102000CEFB2A463B46FFF7B3FA0022274BFFF7D9
:1010300021FB53462246FFF7A5FA0022244BFFF777
:1010400019FB0022204BFFF715FBC6E90A010246F7
:101050000B46D6E90801FFF795FA002204460D4633
:101060001346FFF735FC01D985F000450022164BE9
:1010700020462946FFF78CFA0022164BFFF7FAFAB2
:10108000FFF7E2FB3080DDE90401FFF7BEFB706093
:101090000BB0BDE8F08F000000409F4000001C40F6
:1010A00000000840480000207C0A0020000070403A
:1010B000000060410000404000001041000060401E
:1010C000007097C0007097400000594000004041F8
:1010D0000000E0400080584001490020088070472F
:1010E000180100201FB50020029010200090012060
:1010F0000190032003906946014800F01DFD1FBDCB
:101100000008014070B50446084803F097F808B19C
:10111000012070BD054D2878FFF73BFB6060A87883
:10112000FFF737FB2060002070BD00003400002076
:1011300001221021014800F003BE00000008014018
:10114000014800F02BBB0000F4010020014800F032
:1011500025BB0000F0060020014800F01FBB000086
:1011600024060020014800F019BB0000680600209A
:10117000014800F013BB0000AC06002030B590F829
:1011800040500124AC40C56B6C60046863604368E8
:10119000102B036803D099600068C26030BD9A606C
:1011A0000068C16030BD7047082000F0B9BC7047CE
:1011B00010B5114A0021084652F82030401C19444D
:1011C0006428F9DB6420B1FBF0F0FFF7E2FA0B4989
:1011D000FFF7BBF86FF00B01FFF727F90849FFF79E
:1011E000B4F8FFF74AFB074A074BFFF7D1F9BDE810
:1011F0001040FFF785BB00007407002033335340D5
:10120000000070418638D6C56D34F03F10B50446F5
:10121000FFF7CEFF2060B0F1824F05DCBDE8104043
:101220000421024800F085BD10BD000000100140FF
:1012300003480088052801D300207047012070472B
:101240001801002070B5044602F0BCFA034D28884E
:10125000FFF79FFA60606868206070BD480000205A
:10126000F8B50023009390F824201C46012A12D0E0
:10127000012280F824204A681F26072A0DD205681B
:101280006F6B521E02EB82029640B7430E68964087
:1012900037436F6319E00220F8BD05680D2A0AD2B2
:1012A0002F6BD21F02EB82029640B7430E68964026
:1012B00037432F6309E0EF6A0D3A02EB8202964052
:1012C000B7430E6896403743EF620A680726056801
:1012D0000A2A0AD3EF680A3A02EB42029640B74361
:1012E0008E6896403743EF6008E02F6902EB4202B8
:1012F0009640B7438E68964037432F610A68102A9C
:1013000001D0112A20D1124D0268AA4217D1956846
:101310002D0219D4956845F40005956009681029D7
:1013200012D10C490C4A0968B1FBF2F101EB8101C1
:10133000490000E0491E00910029FBD104E0816AC8
:1013400041F020018162012380F824401846F8BD55
:10135000002401401800002040420F0070477047F1
:10136000704700002DE9F04104004FF0000514D053
:10137000A06A002628B9E66284F82460204600F0BE
:1013800083F82046FFF78EFCA16A01F010010143AB
:1013900004D0A06A40F01000A0626AE0A16A21F4C3
:1013A000885141F00201A162334923688B42E1690F
:1013B00004D1B1F5402F01D14FF40021277B4FF428
:1013C000807C41EA470261680A43A168614508D010
:1013D000012906D0002194F814E0BEF1010F02D0DB
:1013E0000AE06146F7E7C7B1A76A47F02007A7629E
:1013F000E76A47F00107E7625F6827F469470F4330
:101400005F6021688B681D4F3B4013438B60A16870
:1014100061450BD0012909D00CE0DFF864E0A76931
:101420000EEB47370F4347F40061E5E7218A0D05CE
:10143000A5F580152168CB6A23F470032B43CB629A
:10144000216889680F4B1940914208D1E662A16A70
:1014500021F0020141F00101A162BDE8F081A06A22
:1014600020F0020040F01000A062E06A40F00100AD
:10147000E0620120F1E70000003C0140FDF7E1FFE0
:1014800000E0FFFFFE0E1FFF70B586B00024064689
:10149000009401940294039400681A4988422ED162
:1014A0001949886940F400708861886900F4007007
:1014B0000490886940F0040088618869694600F0FA
:1014C0000400049002200090032001900F4800F0D7
:1014D00033FB104D0E48C5E900048020C5E90240E9
:1014E00080002861800068612020C5E90604284644
:1014F00000F078FA08B1FFF75AFE35626E6206B066
:1015000070BD0000002401400010024000080140AE
:1015100008000240F40100202DE9F0478946044606
:101520003B4900683B4F0E1D9046884201D0B842AF
:1015300007D1306810F4702F03D001252846BDE88C
:10154000F08794F8240001280CD0012084F82400AE
:101550002046FFF705FC05004FF0000104D084F899
:101560002410EBE70220EAE7A06A40F6016290430C
:1015700040F48070A0622068B84218D1326812F43A
:10158000702F14D0A06A40F48010A062306840052B
:1015900005D5A06A20F4005040F48050A062A06AF3
:1015A000C0040AD5E06A20F00600E06206E0A26A04
:1015B00022F48012A2624068E9E7E16284F8241014
:1015C000216A15488862216A1448C862216A144851
:1015D000086321686FF0020008602068816841F4A8
:1015E00080718160216843464A464C31206A00F090
:1015F00037FA20688168C1F342410729816803D026
:1016000041F48011816099E741F4A001FAE70000FC
:101610000024014000280140EF0C0008570D00088D
:101620003D0D000810B590F821100022022905D0C8
:101630000421816380F82020012010BD01680B681F
:1016400023F00E030B6001680B6823F001030B60AD
:1016500090F84030012404FA03F1C36B596080F81C
:10166000214080F82020104610BD00002DE9F05FD9
:1016700090F821100024022903D004218163012461
:1016800085E001680A6822F00E020A6001680A68B3
:1016900022F001020A603F4E3E4FB215DFF8F4C05F
:1016A000DFF8F090DFF8ECA0DFF8E8B0DFF8E4E076
:1016B0000168783F13011502ACF1640CA9F15009DF
:1016C000AAF13C0AABF1280BAEF1140E4FF48018CE
:1016D000B14227D9B9420ED0614512D049451DD03B
:1016E000514518D0594518D0714501D1424615E0F1
:1016F000294EB14201D1012210E0274E1436B142E9
:1017000001D110220AE0244E2836B14206D0224AE6
:101710003C32914201D11A4600E02A461E49091F77
:101720000A602BE0B94213D0614517D0494522D059
:1017300051451DD059451DD0714501D142461AE091
:10174000B14202D14FF0807215E0134EB14201D187
:10175000012210E0104E1436B14201D110220AE0ED
:101760000D4E2836B14206D00B4A3C32914201D18F
:101770001A4600E02A46074980394A60012180F86C
:101780002110002180F82010416B01B188472046CC
:10179000BDE8F09F80000240080402402DE9F05FA0
:1017A000C16B0B6801680A68046C4FF0040808FA02
:1017B00004F8844D844E854FDFF814C2DFF814928C
:1017C000DFF814A2DFF814B2DFF814E218EA030F0E
:1017D00065D05FEA427862D50A68920603D40A6847
:1017E00022F004020A60DFF8F0814FF480620168A1
:1017F00008F1140813011402414524D9A9420DD05F
:10180000B1420FD0B9421AD0614515D0494515D023
:10181000514501D1120312E0594501D104220EE0D5
:10182000714501D140220AE06D4D1435A94206D020
:101830006B4A2832914201D11A4600E0224667499C
:10184000091F0A6029E0A94213D0B14215D0B9425C
:1018500020D061451BD049451BD0514502D14FF4E2
:10186000800217E0414502D14FF0806212E05945F5
:1018700001D104220EE0714501D140220AE0584D09
:101880001435A94206D0564A2832914201D11A464F
:1018900000E022464B4908394A60C16A71E04FF0C6
:1018A000020808FA04F818EA030F70D05FEA827899
:1018B0006DD50A68920606D40A6822F00A020A6008
:1018C000012180F82110DFF810814FF400720168C7
:1018D00008F1140813011402414524D9A9420DD07E
:1018E000B1420FD0B9421AD0614515D0494515D043
:1018F000514501D1120312E0594501D102220EE0F7
:10190000714501D120220AE0354D1435A94206D097
:10191000334A2832914201D11A4600E022462F492B
:10192000091F0A6029E0A94213D0B14215D0B9427B
:1019300020D061451BD049451BD0514502D14FF401
:10194000001217E0414502D14FF0007212E05945F4
:1019500001D102220EE0714501D120220AE0204D82
:101960001435A94206D01E4A2832914201D11A46A6
:1019700000E02246134908394A60002180F820100F
:10198000816A00291CD0BDE8F05F0847FFE7082501
:10199000A5401D4214D0120712D50A6822F00E028B
:1019A0000A6090F84020C36B012101FA02F25A60EC
:1019B000816380F82110002180F82010016BE0E79E
:1019C000BDE8F09F080002401C00024030000240C9
:1019D00044000240580002406C00024008040240EB
:1019E0001C04024030B560B11A4B016814229942C0
:1019F00009D2194B0B44B3FBF2F292000264174A6E
:101A00000AE0012030BD134B5B420B44B3FBF2F202
:101A1000920002640F4A083AC263022280F8212031
:101A20000A6843F6F0739A43F0E901342343D0E99E
:101A300002452C43234304692343446923438469B7
:101A4000234313430B600021416301224277017756
:101A5000084630BD08040240F8FFFDBF0000024008
:101A600070B5044690F82000002501280CD0012014
:101A700084F8200094F821600020012E06D084F81C
:101A800020000225284670BD022070BD022684F881
:101A90002160A0632068066826F0010606602046E3
:101AA000FFF76CFBE06A00282068016802D041F073
:101AB0000E0106E021F0040101602068016841F098
:101AC0000A0101602068016841F001010160D9E765
:101AD00070B5044600F03AF90546601C02D004488F
:101AE0000078044400F032F9401BA042FAD370BDE4
:101AF0005401002010B5094C0821204600F014F9CB
:101B0000002809D100220421204600F019F9BDE87F
:101B10001040322004F0C6B810BD00000010014093
:101B2000044910B50A68024202D00860FFF7E2FFDC
:101B300010BD0000140401402DE9F84FDFF8C091FA
:101B4000002409F1040A0AF1040B23464FF00F08A0
:101B50000BF1040ECCE00127A7403A40BA4272D103
:101B6000DFF8A0C14D68A5EB0C0665452BD00DDC58
:101B7000032D34D005DC35B3012D19D0022D2FD122
:101B80001BE0112D16D0122D2AD119E0B6F5881FB1
:101B900019D006DCB6F5803F15D0B6F5801F1FD1F1
:101BA00011E0B6F5001F0ED0B6F5041F18D10AE0FB
:101BB000CB6815E0CB681B1D12E0CB6808330FE043
:101BC000CB680C330CE08B682BB1012B4FF0080372
:101BD00003D0476104E0042302E0076100E0002332
:101BE000FF2A01D8064601E000F104064FEA840509
:101BF00001D9A5F12005376808FA05FC27EA0C078A
:101C000003FA05F547EA050737604D68ED006ED524
:101C10003D4DAE6946F00106AE61AD6924F00306A4
:101C200005F001050095394D7719BE68A5072D0F00
:101C300008FA05FC26EA0C06DFF8D4C0604503D19B
:101C40004FF0000C25E052E0DFF8C8C0604502D13B
:101C50004FF0010C1DE0DFF8C0C0604502D14FF02D
:101C6000020C16E0DFF8B4C0604502D14FF0030C5F
:101C70000FE0DFF8ACC0604502D14FF0040C08E083
:101C8000DFF8A0C0604502D14FF0050C01E04FF035
:101C9000060C0CFA05FC4CEA060CC7F808C04D68A7
:101CA000D9F80060ED034D4601D5164300E0964398
:101CB0002E604D68DAF80060AD03554601D5164335
:101CC00000E096432E604D68DBF80060ED025D4653
:101CD00001D5164300E096432E604D68DEF80060A3
:101CE000AD02754601D5164300E096432E60641C94
:101CF0000A6832FA04F57FF42EAFBDE8F88F0000D1
:101D000000040140000011100010024000000140DA
:101D100000080140000C0140001001400014014087
:101D200000180140001C01408068084000D00120DC
:101D30007047C2680A4201D0416170470161704733
:101D40000AB1016170470904FBE70000014880689F
:101D50007047000054010020024881680278114455
:101D60008160704754010020074810B5016841F0B8
:101D700010010160032000F0EDF8002000F006F8EB
:101D800000F096F8002010BD0020024000B501468A
:101D900087B00022372000F0BDF8372000F0ACF803
:101DA0001348C16941F02001C161C06905A900F073
:101DB00020000690684600F019FA00F037FA0D4945
:101DC0004000B0FBF1F10D480B4A491E0260416032
:101DD00040F2E7320021C0E90321816000F008FEF3
:101DE00010B1012007B000BD044800F031FEF9E752
:101DF0000010024040420F00001400403407002051
:101E000038B5044600680168C943C9061CD4016896
:101E100040680090204600F0DAFF606B0068406880
:101E20000A490B4D4860C0F5807081B2698001207D
:101E30002870281D02F08EFC291D2046BDE8384080
:101E40004FF4807201F0C0B938BD0000800000205E
:101E50009C0A00201CB5044611480021009101682D
:101E60000868C043C00619D40868486801900C4847
:101E700000F0ADFF606B006840680A4908600A49DD
:101E8000C0F580704880012008700848006800286C
:101E900004D000236A46891C05F030FC1CBD0000FC
:101EA0006405002044000020040900201C000020DC
:101EB0000F4808B5816941F001018161816901F034
:101EC00001010091C16941F08051C161C0690022E6
:101ED00000F0805000900F21901E00F01BF8054983
:101EE000486820F0E06040F00070486008BD0000E5
:101EF0000010024000000140002809DB00F01F0232
:101F0000012191404009800000F1E020C0F800115B
:101F100070470000F0B40E4B1B68C3F30223C3F1FB
:101F20000704042C00D904241D1D072D01D2002311
:101F300000E0DB1E012606FA04F56D1E0D409D40F3
:101F40009E40761E164045EA0601F0BC03F044B9F7
:101F50000CED00E0064A00F0070110684FF6FF03A1
:101F6000184040EA01200349084310607047000010
:101F70000CED00E00000FA05F8B5054600680168C0
:101F8000C943C9061FD4016840680090284600F084
:101F90001EFF686B006840680B4CC0F5807081B212
:101FA000618001202070201D02F0C0F84FF480767F
:101FB0003146201DFEF74DF93246211D2846BDE869
:101FC000F84001F001B9F8BD0A0E00202DE9F843F0
:101FD00004460078344FC00752D0F8690025C0008D
:101FE00008D4F86940F08050F861F869012500F0E4
:101FF000805000902D480168C90511D401688046C1
:1020000041F480710160FFF7A1FE064604E0FFF78E
:102010009DFE801B642822D8D8F80000C005F6D5A4
:10202000386A10F4407020D0A18801F440718142D8
:102030001BD0386A1E49012220F440700A60002239
:102040000A603862C00710D0FFF780FE064641F2F2
:10205000883807E0FFF77AFE811B414502D903204B
:10206000BDE8F883386A8007F4D5386A616820F4DF
:102070004070084338621DB1F86920F08050F86163
:102080002078800705D57868A16820F4404008438F
:1020900078602078C00605D57868616920F48000F2
:1020A000084378600020DBE7001002400070004029
:1020B000400442422DE9F0470D46040067D0DFF8A6
:1020C0001881D8F8000000F00700A8420CD2D8F818
:1020D000001021F007012943C8F80010D8F80000CB
:1020E00000F00700A84252D120683C4E810712D56B
:1020F000400703D5706840F4E06070602078000706
:1021000003D5706840F4605070607068A16820F07A
:10211000F000084370602078C00727D0606801286D
:1021200010D03168022810D0890700292FDA716891
:1021300021F0030101437160FFF708FE074641F2F9
:1021400088390CE031688903EFE78901EDE7FFF793
:10215000FDFDC11B494502D90320BDE8F087706829
:10216000616800F00C00B0EB810FF0D1D8F80010DE
:10217000404601F00701A9420BD9016821F007018F
:1021800029430160006800F00700A84201D0012047
:10219000E3E72078400705D57068E16820F4E06047
:1021A000084370602078000706D57068216920F424
:1021B000605040EAC100706000F058F87168084A49
:1021C000C1F30311515CC840064908600648006825
:1021D000FFF7DCFD0020C0E70020024000100240B5
:1021E000B87E000818000020580100200F2202606D
:1021F0000C4A536803F003034360536803F0F00391
:102200008360536803F4E063C36052684FF4E06393
:1022100003EAD20202610448006800F00700086087
:1022200070470000001002400020024004480549A9
:1022300000684968044AC1F30221515CC8407047F4
:102240001800002000100240C87E0008044805491C
:1022500000684968044AC1F3C221515CC840704714
:102260001800002000100240C87E000812A085B0AF
:102270000FC88DE80F0014A0144B00680490596833
:10228000134801F00C02042A10D0082A0ED1C1F321
:102290008342C9031DF802000AD5596804AAC1F394
:1022A0004041515C0A4A5043B0FBF1F005B0704721
:1022B00008494843FAE70000020304050607080935
:1022C0000A0B0C0D0E0F101001020000001002404E
:1022D00000127A0000093D002DE9F84F04006FD08C
:1022E0002078BE4DC00747D06868C0F38100012840
:1022F00007D06868C0F38100022809D16868C0036C
:1023000006D52868800337D560680028E7D033E019
:102310006068B0F5803F0BD010B1B0F5A02F11D0A0
:10232000286820F480302860286820F4802002E0AB
:10233000286840F480302860606888B1FFF706FDA7
:10234000064609E0286840F480202860F0E7FFF79F
:10235000FDFC801B642873D828688003F7D50BE048
:10236000FFF7F4FC064604E0FFF7F0FC801B64284E
:10237000F1D828688003F7D42078DFF864828007DA
:102380004FF0010A4FF0000939D5686810F00C0FC2
:1023900007D06868C0F38100022809D16868C003CB
:1023A00006D42868800714D52069012808D110E0D8
:1023B0002069B0B1C8F800A0FFF7C8FC064605E0E8
:1023C00007E1FFF7C3FC801B0228C4D828688007F8
:1023D000F7D52868616920F0F80040EAC10028605C
:1023E0000DE0C8F80090FFF7B1FC064604E0FFF7E7
:1023F000ADFC801B022823D828688007F7D42078FA
:1024000000072CD57748A169D9B1C0F800A0FFF723
:102410009DFC064604E0FFF799FC801B02280FD8BC
:10242000686A8007F7D570484FF4FA510068B0FB2E
:10243000F1F0009000BF0098411E0091FAD20EE02A
:102440007CE0C0F80090FFF781FC064604E0FFF74F
:102450007DFC801B022871D8686A8007F7D4207839
:1024600040075BD5E8690027C00008D4E86940F060
:102470008050E861E869012700F0805000905B48D7
:102480000168C90511D40168834641F48071016077
:10249000FFF75CFC064604E0FFF758FC801B64284D
:1024A0004CD8DBF80000C005F6D5E06801280AD05A
:1024B00008B1052813D0286A20F001002862286A94
:1024C00020F0040002E0286A40F001002862E06881
:1024D00041F2883B88B1FFF739FC064609E0286ADB
:1024E00040F004002862EEE7FFF730FC811B5945FD
:1024F0005BD8286A8007F7D50BE0FFF727FC064674
:1025000004E0FFF723FC811B59454ED8286A800759
:10251000F7D41FB1E86920F08050E861E069A8B302
:102520006968C1F38101022946D00228484606D0D5
:10253000C8F86000FFF70AFC044639E035E047467A
:10254000C8F86000FFF702FC064604E0FFF7FEFB58
:10255000801B022829D828688001F7D4206AB0F5AA
:10256000803F05D16868A16820F4003008436860A6
:10257000D4E908010843696821F4741108436860CC
:10258000C7F860A0FFF7E2FB044605E023E0FFF791
:10259000DDFB001B022808D828688001F7D51AE067
:1025A000FFF7D4FB001B022802D90320BDE8F88FF7
:1025B00028688001F4D40EE00128F7D06868226A08
:1025C00000F48031914204D1616A00F470108842B5
:1025D00001D00120EAE70020E8E7000000100240F7
:1025E0000000424280044242180000200070004077
:1025F0007047000038B50446006842688168C943E6
:102600004B0606D5CB0704D1D3435B0601D4216C1E
:1026100005E08B0708D4D3431B0605D4616C01B0D9
:102620002046BDE8304008478B0601D54B0646D40E
:10263000D3439B0643D44B060AD494F85130032B62
:102640003ED0636D43F004036365C3688368009301
:10265000890609D4616D41F00101616581680091CD
:10266000016821F040010160606D002827D02068DA
:10267000416821F0E0014160012084F85100900799
:1026800022D02068416821F003014160104DE06CC8
:1026900040B14563E06CFEF7E9FF18B1606D40F0B2
:1026A00040006065A06C002809D04563A06CFEF76F
:1026B000DDFF002803D0606D40F04000606538BD4C
:1026C000C1688068009038BD2046FFF791FF38BD93
:1026D0002545000870B5040005D00025A56294F8D2
:1026E000510010B106E0012070BD84F85050204622
:1026F00000F02EF8022084F851002068016821F0D3
:1027000040010160D4E901010843D4E903121143F7
:10271000084361690843218B01F400710843E169B2
:102720000843216A0843A16A084321680860A06938
:10273000042101EA1040216848602068C16921F441
:102740000061C1616565012084F85100002070BD01
:1027500030B585B00024009401940294039400687D
:10276000184988422BD11848C16941F40041C16120
:10277000C16901F400410491816941F0080181615E
:102780008069124D00F0080004902820009002207B
:1027900001900320039069462846FFF7CDF91020E9
:1027A000CDE90004694628460294FFF7C5F90022E6
:1027B00005213320FFF7AEFB3320FFF79DFB05B06B
:1027C00030BD0000003C004000100240000C014001
:1027D0002DE9F84F044690F8500001250A9E1F4647
:1027E00092468B464FF0000801280ED0012084F855
:1027F0005000FFF7ABFA814694F851006168012858
:102800000CD0B1F5827F07D102E00220BDE8F88F3D
:10281000A16809B9042801D00220B6E0BBF1000F7D
:1028200027D0BAF1000F24D01FB394F85100042828
:1028300002D0052084F8510000206065C4F838A05B
:10284000E787A787C4F830B0E786A786206460646E
:1028500020680168490603D4016841F04001016025
:10286000E068B0F5006F606805D0E8B3012F43D091
:1028700079E0012089E008B1012F34D1206B216873
:102880000088C860206B801C2063E08E401EE086BC
:1028900029E02068816889070DD5E18E59B1012DA5
:1028A00009D1216B0988C160206B801C2063E08EF8
:1028B000401EE086002520688168C9070BD0E18FA3
:1028C00049B1C068A16B0880A06B801CA063E08F39
:1028D000401EE0870125FFF739FAA0EB0900B0425E
:1028E00001D3701C50D100E006E0E08E0028D0D16A
:1028F000E08F0028CDD13CE0206B21680078087380
:10290000206B401C2063E08E401EE0862BE0206898
:10291000816889070DD5E18E59B1012D09D1216B4F
:1029200009780173206B401C2063E08E401EE08616
:10293000002520688168C9070BD0E18F49B1C068C4
:10294000A16B0870A06B401CA063E08F401EE08765
:102950000125FFF7FBF9A0EB0900B04202D3701C80
:1029600001D011E086B1E08E0028D0D1E08F0028A0
:10297000CDD14A463146204601F0DCFD38B1202059
:102980004FF00108606508E00320804605E0A0687C
:1029900018B92068C16880680090012084F851004F
:1029A000002084F85000404630E77047704770B50B
:1029B00090F83C20012A19D0012500F83C5F022242
:1029C000427050F83C2C5368946823F070060B68F2
:1029D0004968334324F080042143536050F83C2C71
:1029E0009160457000210170084670BD022070BDE5
:1029F00010B5040003D094F83D0010B107E00120A9
:102A000010BD002084F83C00204600F00DF80220A4
:102A100084F83D00211D206801F04AFF012084F860
:102A20003D00002010BD000008B50068064988423E
:102A300008D10648C16941F01001C161C06900F0C8
:102A40001000009008BD000000100040001002407F
:102A50000168CA6842F00102CA600068816801F03A
:102A60000701062903D0016841F00101016000203F
:102A70007047704770B50446006801694FF0000563
:102A8000C943890715D4C168C943890711D4E91E10
:102A9000016101202077206880698007204602D0EC
:102AA000FFF7E7FF04E000F0CBF8204600F060F904
:102AB000257720680169C943490717D4C168C9430C
:102AC000490713D46FF004010161022020772068C8
:102AD000806910F4407F204602D0FFF7CAFF04E06F
:102AE00000F0AEF8204600F043F925772068016930
:102AF000C943090716D4C168C943090712D46FF046
:102B000008010161042020772068C0698007204601
:102B100002D0FFF7AEFF04E000F092F8204600F08C
:102B200027F9257720680169C943C90617D4C16808
:102B3000C943C90613D46FF0100101610820207742
:102B40002068C06910F4407F204602D0FFF791FF53
:102B500004E000F075F8204600F00AF925772068B7
:102B60000169C943C90708D1C168C943C90704D16C
:102B7000891E0161204600F01FF920680169C943E0
:102B8000090609D4C168C943090605D46FF080015C
:102B900001612046FFF709FF20680169C943490622
:102BA00009D4C168C943490605D46FF040010161E9
:102BB000204600F00BF920680169C94389060BD44F
:102BC000C168C943890607D46FF02001016120461E
:102BD000BDE87040FFF7EABE70BD000000B585B0EB
:102BE00000210091019102910391006810498842EF
:102BF0001BD11048816941F01001816180696946EB
:102C000000F0100004904FF47070009002200190CA
:102C100003900948FEF790FF0849486820F4406097
:102C200040F0E06040F44060486005B000BD000046
:102C3000000400400010024000100140000001406C
:102C4000704770B5044690F83C000D4601280DD041
:102C5000012684F83C60022084F83D0042B1042A39
:102C600018D0082A2AD00C2A4DD139E0022070BD94
:102C7000206801F071FE2068816941F008018161DE
:102C80002068816921F004018161206881692A69D5
:102C9000114311E0206801F08FFE2068816941F442
:102CA000006181612068816921F48061816120680F
:102CB00081692A6941EA0221816124E0206801F0EA
:102CC000B1FE2068C16941F00801C1612068C16995
:102CD00021F00401C1612068C1692A69114311E032
:102CE000206801F0D3FE2068C16941F40061C16130
:102CF0002068C16921F48061C1612068C1692A69C5
:102D000041EA0221C16184F83D60002084F83C0062
:102D100070BD10B5040003D094F83D0010B107E079
:102D2000012010BD002084F83C00204600F00CF883
:102D3000022084F83D00211D206801F0B9FD01202A
:102D400084F83D00002010BD08B50068064988429F
:102D500008D10648C16941F00201C161C06900F0B3
:102D60000200009008BD0000000400400010024076
:102D70007047000010B504460068012201F0DEFD36
:102D80000B482168814202D00A48814203D1486C35
:102D900040F4004048642068816801F0070106297A
:102DA00003D0016841F001010160002010BD000066
:102DB000002C01400034014000680349884201D1E1
:102DC000FEF7CABF7047000000140040704710B5FE
:102DD00004460068416994F83920C1F3C011212AE2
:102DE0000BD151B1416921F080014161206B08B1E3
:102DF000FEF718FC204601F005FF2068416994F8B1
:102E00003A20C1F38011222A0BD151B1416921F03E
:102E100040014161606B08B1FEF704FC204601F0FF
:102E2000E3FE002010BD704770B5026804461068CC
:102E3000D168536910F00F0F51D003F0010501F470
:102E4000907635435DD0C20705D0CA0503D5E26B45
:102E500042F00102E263420705D5DA0703D0E26BD4
:102E600042F00202E263820705D5DA0703D0E26B83
:102E700042F00402E263020705D5DA0703D0E26BF1
:102E800042F00802E263E26B002A34D0800604D5E7
:102E9000880602D5204601F0BEFE20684069E16B3D
:102EA000C0F3801001F008010143204624D001F056
:102EB0009BFE2068416949061AD5416921F040010D
:102EC0004161606BA0B11B494163606BFEF7CEFBB3
:102ED000002810D0606B416BBDE870400847830646
:102EE0000FD58B060DD52046BDE8704001F093BE8E
:102EF0002046FFF798FF70BDFFF795FF0020E063C5
:102F000070BD030606D50B0604D52046BDE870400B
:102F100001F028BF4006F3D54806F1D5D168204618
:102F200021F04001D160202184F8391000F0F7F938
:102F300070BD0000494B000870B5040004D094F83F
:102F40003900002510B106E0012070BD84F838502A
:102F5000204600F023F8242084F839002068C16856
:102F600021F40051C160204601F0A0FE20680169F3
:102F700021F4904101612068416921F02A014161F9
:102F80002068C16841F40051C160E563202084F8E5
:102F9000390084F83A00002070BD00002DE9F043AC
:102FA00085B0002500950195029503950446DFF84C
:102FB000F48101687C4802227C4B202780264FF454
:102FC00000794FF0030C41453DD1816941F48041C6
:102FD0008161816901F480410491816941F00401BA
:102FE00081618069694600F00400CDE903C0CDE944
:102FF000009298461846FEF79FFDF000CDE90005C7
:10300000694640460295FEF797FDDFF8A8816849BA
:103010004046C0E90015C0E90256C8F81050C8E99A
:103020000557C8F81C50FEF7DDFC08B1FEF7BFF8E5
:10303000C4F83480002205212520C8F82440FEF77A
:1030400069FF25205AE0DFF8708141455BD1C169F5
:1030500041F40031C161C16901F400310491816919
:1030600041F0040181618069694600F00400049028
:103070000420CDE900029846CDF80CC01846FEF7B2
:103080005BFD0820CDE90005694640460295FEF744
:1030900053FDDFF82081464908F1440840461431C9
:1030A000C0E90015C0E90256C8F81050C8E9055734
:1030B000C8F81C50FEF796FC08B1FEF778F83D4FB3
:1030C0003B48C4F8348088372830C8F8244001C70A
:1030D000102061C7374847F8105988307D61BD61BD
:1030E000FD61FEF77FFC08B1FEF761F8276300225F
:1030F000052126207C62FEF70DFF2620FEF7FCFE50
:1031000005B0BDE8F0832D4B9942F9D1C16941F476
:103110008021C161C16901F480210491816941F07C
:10312000200181618069DFF8988000F02000049020
:103130009815CDE900026946CDF80CC04046FEF76F
:10314000FBFCCDE90095694640460295FEF7F4FC8C
:103150001C49486820F0300040F0E06040F030004A
:103160004860DFF85080124908F1CC084046283901
:10317000C0E90015C0E90256C8F81050C8E9055763
:10318000C8F81C50FEF72EFC08B1FEF710F8C4F882
:103190003480002205212720C8F82440FEF7BAFE1B
:1031A0002720ABE700380140001002400008014032
:1031B000580002402406002000440040004800401F
:1031C000001401400000014037B5044690F83A0071
:1031D00082B0134620283AD1039AAAB3A3B394F835
:1031E0003800012833D0012084F83800A262A3857A
:1031F0000025E563222084F83A00616B1548886257
:10320000616B1548C862616B14480863606B456365
:103210002168606B091DFEF723FC20680168416886
:10322000009184F83850C16841F48071C160206811
:10323000416941F0010141612068416941F040016B
:103240004161002005B030BDFFE70120FAE7022010
:10325000F8E70000A34B0008DF4B0008594B0008BB
:10326000704770472DE9F843044690F839001E4630
:1032700017460D46202850D1A5B19FB194F83800CB
:1032800001284AD0012084F838004FF00008C4F823
:103290003C80212084F83900FEF758FDA784814640
:1032A000E78426E00120BDE8F883E08C401EE0843E
:1032B000A0684B46B0F5805F4FF000024FF08001F0
:1032C0002046009603D001F07EFDE8B90DE001F044
:1032D0007AFDC8B928882168C0F3080048602069D1
:1032E00008B16D1C05E0AD1C03E0216815F8010B69
:1032F0004860E08C0028D8D14B460022402120466F
:10330000009601F060FD08B10320CCE7202084F88E
:10331000390084F838800020C5E70220C3E77047F1
:10332000FEE7000070B50D460646401BFDF728FA83
:1033300000F0F2F8FDF750FA084CE06070194042D6
:10334000FDF71EFA01F04EF8FDF746FA0449206138
:10335000E2680B689A630968086470BD1801002070
:10336000E404002070B5054601F092F8144E0022E6
:1033700040213046FEF7E4FC0024280601D5012256
:1033800000E0002280213046FEF7DAFC6806050ED8
:10339000022002F096FC012240213046FEF7D0FCCC
:1033A000022002F08EFC002240213046FEF7C8FCCD
:1033B000022002F086FC641CE4B2082CDDD370BD50
:1033C000000C014010B501F063F80E4C0122802181
:1033D0002046FEF7B5FC012240212046FEF7B0FC56
:1033E000042002F06EFC002280212046FEF7A8FC9B
:1033F000042002F066FC20460022BDE81040402177
:10340000FEF79EBC000C014010B501F041F80E4CD7
:10341000002240212046FEF793FC00228021204616
:10342000FEF78EFC042002F04CFC012240212046D5
:10343000FEF786FC012280212046FEF781FCBDE8D4
:103440001040042002F03DBC000C014070B5002487
:1034500001F00EF8134D012280212846FEF770FC82
:10346000012002F02EFC012240212846FEF768FCD4
:10347000012002F026FC07E0641CE4B2FA2C03D918
:10348000FFF7C2FF012070BD80212846FEF74CFCEB
:103490000028F1D1002240212846FEF751FC0020EF
:1034A00070BD0000000C014008B1012200E00022C4
:1034B0004FF480710148FEF743BC0000000C01404E
:1034C00010B50120FFF7F0FF4FF4FA74204602F028
:1034D000E9FB0020FFF7E8FF204602F0E3FB0120B4
:1034E000FFF7E2FF204602F0DDFBBDE810400020C0
:1034F000FFF7DABF10B500240120FFF7D5FF6420E5
:1035000002F0D0FB0020FFF7CFFF642002F0CAFBDF
:10351000641C022CF0DB10BD114910B5884202DC9E
:103520001049884200D908460F4C10F0FF4F07D0D1
:10353000B0F5000F06DB0121FCF777FF0B490AE02D
:103540000B480AE010F1FF4F01D2606810BD012165
:10355000FCF76BFF0749FCF7A0FE606010BD0000A0
:103560000000F0410000F0C1180100200000C34439
:103570000080BB440000B44438B5084C2068C168E2
:1035800041F01001C1604FF4807205492046FFF7F9
:103590001BFE206801684068009038BD640500206B
:1035A0000809002070B5154D04462878C00724D0BE
:1035B0006988281D00F026F84FF480763146281DD2
:1035C000FCF747FE05F582703246016AA160C169C9
:1035D000616081692160C168E160016921614169BF
:1035E00061610168A161416821628068E061291D13
:1035F0000348FFF7E9FD0020287070BD0409002092
:10360000640500202DE9F0476B49026801F13004A0
:103610000A6342684A6302890A8790F80AC081F8FF
:103620003AC0D0F80B20C1F83B20D0F80F20C1F8E9
:103630003F20B0F81320A1F84320477D81F8457062
:10364000D0F81620C1F84620D0F81A20C1F84A2038
:10365000C28BA1F84E2090F8200081F850008146DE
:10366000207855287ED101F13B052878552879D15D
:1036700001F146063078552874D100231A461946C0
:10368000184614F80080434415F80080DBB2424429
:1036900016F80080401C4144C0B2D2B2C9B20A2818
:1036A000EFD39C455ED197425CD189455AD1608861
:1036B00000B2FDF773F86FF00E084246FDF749F8C7
:1036C0000422FDF746F8FDF71BF93B4F3F1D38601C
:1036D000A08800B2FDF762F84246FDF73AF80422EE
:1036E000FDF737F8FDF70CF97860E08800B2FDF7D8
:1036F00055F84246FDF72DF80422FDF72AF8FDF7AC
:10370000FFF8B860688800B2FDF748F84246FDF758
:1037100020F82A4C00222346FCF73AFFFDF7F0F888
:10372000F860A88800B2FDF739F84246FDF711F8B5
:1037300000222346FCF72CFFFDF7E2F83861E88809
:1037400000B2FDF72BF84246FDF703F800222346AE
:10375000FCF71EFFFDF7D4F87861708800B2FDF722
:103760001DF800E026E04246FCF7F3FF144C00226F
:103770002346FCF70DFFFDF7C3F8B861B08800B22F
:10378000FDF70CF84246FCF7E4FF00222346FCF765
:10379000FFFEFDF7B5F8F861F08800B2FCF7FEFF18
:1037A0004246FCF7D6FF00222346FCF7F1FEFDF768
:1037B000A7F83862BDE8F087040A002000409F4067
:1037C0000080664070B5354C354DA169012901D0A6
:1037D00071B35BE0002280212846FEF7B1FA002099
:1037E00000F018FF002000F015FF0004A06000208A
:1037F00000F010FFA16801EB0020A060002000F0A5
:1038000009FFA16801220844A06080212846FEF734
:1038100097FA002280212846FEF792FA562000F0FF
:10382000F9FE012280212846FEF78AFA00202CE0CA
:10383000002280212846FEF783FA002000F0EAFEED
:10384000002000F0E7FE0004E060002000F0E2FE4F
:10385000E16801EB0020E060002000F0DBFEE168A1
:1038600001220844E06080212846FEF769FA002220
:1038700080212846FEF764FA462000F0CBFE0122A4
:1038800080212846FEF75CFA0120A061D4E90201FC
:1038900000F0AAFEBDE87040FDF7CABA480000205B
:1038A0000014014070B5724D012280212846FEF7B8
:1038B00047FA002280212846FEF742FA1E2000F037
:1038C000A9FE40F6313002F0FCF9012280212846A1
:1038D000FEF736FA002280212846FEF731FAA020B2
:1038E00000F098FEFF2000F095FE624C0002206080
:1038F000FF2000F08FFE2168012208442060802113
:103900002846FEF71DFA002280212846FEF718FA05
:10391000A22000F07FFEFF2000F07CFE000260602D
:10392000FF2000F077FE616801220844606080217A
:103930002846FEF705FA002280212846FEF700FA05
:10394000A42000F067FEFF2000F064FE0002A060EB
:10395000FF2000F05FFEA16801220844A0608021E2
:103960002846FEF7EDF9002280212846FEF7E8F907
:10397000A62000F04FFEFF2000F04CFE0002E060A9
:10398000FF2000F047FEE16801220844E06080214A
:103990002846FEF7D5F9002280212846FEF7D0F907
:1039A000A82000F037FEFF2000F034FE0002206166
:1039B000FF2000F02FFE21690122084420618021B0
:1039C0002846FEF7BDF9002280212846FEF7B8F907
:1039D000AA2000F01FFEFF2000F01CFE0002606124
:1039E000FF2000F017FE6169012208446061802118
:1039F0002846FEF7A5F9002280212846FEF7A0F907
:103A0000AC2000F007FEFF2000F004FE0002A061E1
:103A1000FF2000F0FFFDA16901220844A061802180
:103A20002846FEF78DF9002280212846FEF788F906
:103A3000AE2000F0EFFDFF2000F0ECFD0002E061A1
:103A4000FF2000F0E7FDE16901220844E0618021E8
:103A50002846FEF775F900F049FC00F085FCFDF7FB
:103A6000E7F90548D0E90A12C0E9081270BD000064
:103A7000001401407C0A0020480000203EB50021CF
:103A80001148009101910F4A029102600124816066
:103A9000047301754FF460220461C2614160FDF757
:103AA00061FC08B1FDF783FB07200094CDE90140DC
:103AB00069460548FDF7D4FB002801D0FDF777FBE8
:103AC0003EBD000000240140C4010020194808B593
:103AD000416941F0010141614069002200F00100AB
:103AE000009005210B20FEF715FA0B20FEF704FAD3
:103AF000002205210D20FEF70DFA0D20FEF7FCF93E
:103B0000002205210F20FEF705FA0F20FEF7F4F939
:103B1000002205211020FEF7FDF91020FEF7ECF938
:103B2000002205211120FEF7F5F9BDE8084011201B
:103B3000FEF7E2B90010024010B5AAB000F0CEFFC7
:103B40001C2221496846FCF76BFB0021684602F005
:103B500023FA1E4C1C491C2220601C3107A8FCF7CC
:103B60005FFB002107A802F017FA174960601C22CA
:103B700038310EA8FCF754FB00210EA802F00CFA15
:103B80001149A0601C22543115A8FCF749FB002103
:103B900015A802F001FA0C49E0601C2270311CA843
:103BA000FCF73EFB00211CA802F0F6F90649206153
:103BB0001C228C3123A8FCF733FB002123A802F040
:103BC000EBF960612AB010BD107E000800000020F3
:103BD0002DE9F04F85B000244C48009401940294E4
:103BE0000394816941F010018161816901F0100144
:103BF0000491816941F004018161816901F004014E
:103C00000491816941F020018161816901F0200105
:103C10000491816941F00801816180693C4F00F0A5
:103C200008000490012204213846FEF789F8DFF8E5
:103C3000E4A0012210215046FEF782F8DFF8D8B048
:103C40004FF4E058002241465846FEF779F8012229
:103C500080215846FEF774F80122C0212F48FEF754
:103C60006FF84FF48079002249462C48FEF768F837
:103C7000042001250226CDE90005CDE9024669466A
:103C80003846FDF759FF082000902548CDE901048A
:103C900069463846FDF750FF10200327CDE900059F
:103CA000CDE9024769465046FDF746FFCDF8008052
:103CB0000396CDE9015469465846FDF73DFF802043
:103CC000CDE90005CDE9025769465846FDF734FFB6
:103CD000C020CDE90005CDE9024769460F48FDF750
:103CE0002BFFCDF800900396CDE9015469460B48AF
:103CF000FDF722FF002205210920FEF70BF909201C
:103D0000FEF7FAF805B0BDE8F08F000000100240A1
:103D1000001001400008014000140140000C014067
:103D200000002110104810B50E4901604FF4827157
:103D3000416000218160C1604FF400720161C0E9FF
:103D400005120822C0E90721416281620A21C1628D
:103D5000FEF7C0FC002803D0BDE81040FDF727BAED
:103D600010BD0000003C00408C04002010B58AB05B
:103D7000002407941C2168460894FCF76AFA23483B
:103D8000214901604721C0E9011444F62061C0E9DE
:103D900003148461FEF7BDFF08B1FDF708FA07942C
:103DA00007A91A480894FEF702FE08B1FDF7FFF9CB
:103DB0006020009040F2DC50CDE901040022694609
:103DC00012480494FEF73DFF08B1FDF7F0F9042214
:103DD00069460E48FEF735FF08B1FDF7E8F90822FD
:103DE00069460A48FEF72DFF08B1FDF7E0F90C22FD
:103DF00069460648FEF725FF08B1FDF7D8F90348E4
:103E0000FEF7ECFE0AB010BD00040040E404002000
:103E10001CB500240E4800940C4901940160472110
:103E2000C0E9011401218461C160FEF7E1FD08B120
:103E3000FDF7BDF90094694605480194FEF7B7FD0A
:103E4000002801D0FDF7B3F91CBD000000100040B0
:103E5000240500200C4810B50A4901604FF41651A2
:103E60004160002181600C22C160C0E904128161BF
:103E7000C161FFF761F8002803D0BDE81040FDF7ED
:103E800096B910BD00380140640500200C4810B5FB
:103E90000A4901604FF4E1314160002181600C2248
:103EA000C160C0E904128161C161FFF745F80028D3
:103EB00003D0BDE81040FDF77AB910BD00440040C2
:103EC000A40500200C4810B50A4901604FF41651B2
:103ED0004160002181600C22C160C0E9041281614F
:103EE000C161FFF729F8002803D0BDE81040FDF7B5
:103EF0005EB910BD00480040E4050020FEE7000068
:103F00002DE9F04327480121274D0170284B274A0E
:103F1000C0F81851C0E907234262264B4FF07E5289
:103F2000C0E90A23244B0363254E244BC0E9133612
:103F3000264C4467DFF89CC04365254CC0E91E4C05
:103F4000DFF89880C0F88480234C0467DFF8908005
:103F5000C0F88880DFF88C80C0F8F080DFF88880B7
:103F6000C0F8EC8000F1580E164FDFF85C90C0F8F6
:103F700008518EE884020021C0E943C1C0E929212B
:103F8000C0E92B12C0F8B410C0F8B810C0E935363B
:103F9000C0E93979C0E937324FF07A58C0E9404872
:103FA000BDE8F083D00C00200AD7A33CB1E1693D05
:103FB0001E16EA3D3D9B85BF03788B3EB30C713ED8
:103FC000B30CF13EB37B72BDFAED6B3A3333F33F82
:103FD0000AD7233C6F12833A0000C8420000FA441B
:103FE0000000FAC49A99993F0000C8412DE9F041B8
:103FF00090460B46024620F0004702F0EDFF0646D1
:104000001548874202DD1046BDE8F0811846FCF7EE
:1040100034FC02460B4600201049FCF72BFB0446FB
:104020000D4641463846FCF7C2F9FCF726FC22460D
:104030002B4601F0DBFF04460D4641463046FCF7B7
:1040400084F9FCF71AFC22462B46FCF7A1FABDE8DE
:10405000F041FCF755BC000000401C460000F03F5A
:1040600070470021016341638163C1600161416167
:10407000C163704700B50E48FFF7F3FF0C48983056
:10408000FFF7EFFF0A484C30FFF7EBFF08480949FC
:10409000983000F011F807490548303900F00CF865
:1040A0000449034860394C385DF804EB00F004B86B
:1040B000EC0B0020E80000200A6802604A684260B9
:1040C0008A688260CA6882610A69C2614A6902625A
:1040D0008A694262CA6982620A6AC2624A6A026480
:1040E0008A6A4264C96A8164704700000E4810B54C
:1040F000026840F2DC515163026891630268D16347
:104100000068016400210848FEF734FE04210648D7
:10411000FEF730FE08210448FEF72CFEBDE81040F3
:104120000C210148FEF726BEE40400202DE9F041F1
:10413000054600200E4604461F4F18E020B1012816
:1041400007D0022812D116E0295DFE290ED10120E8
:104150000CE0295D321B521C914206DC4A19A11E5B
:10416000515C0A2902D1022000E00020641CB44204
:10417000E4DBBDE8F081641C285D23280DD02428F1
:1041800017D02528F1D128194178397281787972B0
:10419000C178B9720079F872E7E72919074A51F82E
:1041A000010F386049687960C2E90901FCF794FFA2
:1041B000DBE701203861D8E7400100206C100020C7
:1041C00010B5012204210448FDF7BAFDBDE81040F6
:1041D000322001F067BD0000001001402DE9F041E0
:1041E0000025154F2C46012610213846FDF79CFD71
:1041F0000028F9D0282001F064FD10213846FDF791
:1042000093FD01280BD0C4F1070006FA00F08543A6
:10421000641CE4B2082CE7D32846BDE8F0811021E5
:104220003846FDF781FD0128F9D0C4F1070006FAF0
:1042300000F0C0B20543EBE7000801407FB504463B
:10424000FCF750FF284D002210212846FDF778FD8D
:10425000122001F027FD012210212846FDF770FDF4
:104260001E2001F02EFD00200190029003901020EE
:10427000009069462846FDF75FFC10212846FDF7AF
:1042800053FD70BB10212846FDF74EFD0028F9D0E4
:1042900010212846FDF748FD0128F9D0FFF79EFFC1
:1042A0002070FFF79BFF6070FFF798FFA070FFF78B
:1042B00095FFE070FFF792FF2071FCF713FF0122DA
:1042C00010212846FDF73CFD20786178E27808440B
:1042D000A178114408442179884203D1002004B018
:1042E00070BDFFE70120FAE70008014070B51C4DE2
:1042F000012280212846FDF723FD00228021284647
:10430000FDF71EFD462000F085F901228021284698
:10431000FDF716FD0A2001F0C5FC00228021284689
:10432000FDF70EFD002000F075F9002000F072F995
:104330000C4C0004A060002000F06CF9A16801EBB7
:104340000020A060002000F065F9A1680122084467
:10435000A0602846BDE870408021FDF7F1BC000058
:10436000001401404800002070B51C4D012280213E
:104370002846FDF7E5FC002280212846FDF7E0FCF9
:10438000562000F047F9012280212846FDF7D8FC8D
:104390000A2001F087FC002280212846FDF7D0FC8E
:1043A000002000F037F9002000F034F90C4C000434
:1043B000E060002000F02EF9E16801EB0020E060F1
:1043C000002000F027F9E16801220844E060284657
:1043D000BDE870408021FDF7B3BC0000001401402F
:1043E00048000020114910B5884202DC104988427B
:1043F00000D908460F4C10F0FF4F07D0B0F5000F62
:1044000006DB0121FCF711F80B490AE00B480AE032
:1044100010F1FF4F01D2A06810BD0121FCF705F893
:104420000749FBF73AFFA06010BD00000000F04113
:104430000000F0C1180100200000C3440080BB440C
:104440000000B444074A0649C0E9061201624FF071
:104450007E514162044981620449C1627047000093
:104460000F7B21390F7BA139B5A6F9BFBC74733F0F
:104470001FB58020009000200190012002900220B2
:10448000039069460148FDF757FB1FBD000C014032
:104490001FB5802000900120019000200290022092
:1044A000039069460148FDF747FB1FBD000C014022
:1044B0002DE9F05F0D46C16004464169006AFBF7D3
:1044C00044FF276983463946E069FBF73EFF824691
:1044D0002946A069FBF739FF8146A168E06AFBF72E
:1044E00034FF8046A06A666880F000403146FBF7E2
:1044F0002CFF4146FBF723FF4946FBF7CEFE514612
:10450000FBF7CBFE5946FBF7C8FE2060C4E9010665
:10451000C4E90457BDE8F09F0148FEF76BB80000FE
:104520008C04002010B5406A0021C187C186FEF7C7
:104530005FF810BD38B50B4600920446002280217A
:1045400000F008F8002804D0606D40F0200060659D
:10455000032038BD2DE9F0411D4617460E4604469E
:10456000DDF8188008E0681C06D0FDF7EFFBA0EB33
:104570000800A8420BD255B12068806836EA0000D6
:1045800030D00020B842EED10020BDE8F081206894
:10459000416821F0E00141606068B0F5827F0BD195
:1045A000A068B0F5004F02D0B0F5806F04D120684C
:1045B000016821F040010160A06AB0F5005F09D1F7
:1045C0002068016821F4005101602068016841F40D
:1045D00000510160012084F85100002084F850004F
:1045E0000320D2E70120CDE7F0B5094E6FF07F47F9
:1045F0003246B468D2E90432BC4204D0F568BD4208
:1046000001D004B10DB9C6E90232C6E90401F0BD1A
:10461000480000200EB501238DF808000A20009004
:1046200001AA02A90448FEF7D3F810B1FF208DF8C3
:1046300004009DF804000EBD8C04002038B510A0C5
:10464000104C006801220090D1022046FDF778FB53
:10465000012211032046FDF773FB4FF4FA74204644
:10466000FDF736FA4FF48073032269460648FEF7D9
:10467000F9FD2046FDF72CFA04490020087038BDEA
:10468000C1C1C10000140140E405002080000020E9
:1046900070B54FF4807212491248FEF795FD11482B
:1046A0000068C16841F01001C1604FF4FA742046FF
:1046B000FDF70EFA00F024F8FFF7C0FF0A4D0022C4
:1046C0004FF400612846FDF73BFB0022A914284661
:1046D000FDF736FB2046BDE87040FDF7F9B9000054
:1046E000A00A0020E4050020001401400A4601460B
:1046F0004FF480730148FEF7B5BD0000E4050020CB
:104700001CB510A0114CD0E90010CDE90010012219
:10471000D1022046FDF714FB012211032046FDF7CC
:104720000FFB4FF4FA742046FDF7D2F94FF4807373
:10473000062269460648FEF795FD2046FDF7C8F9B2
:104740001CBD0000C004031B2847000000140140EA
:10475000E405002010B5044606A1FBF785FD06A17F
:104760002046FBF781FD2046BDE8104003A1FBF782
:104770007BBD0000503A0000493A0000443A000076
:1047800070B50D46144606461146FCF7DFF801D217
:10479000204670BD29463046FCF7CEF801D22846A7
:1047A00070BD304670BD000010B54FF480720549F1
:1047B0000548FEF709FD04480068C16841F0100192
:1047C000C16010BD0E0E0020A405002010B55020C1
:1047D00080F31188BFF34F8FBFF36F8F03F0CCF9D5
:1047E00018B104494FF080500860002080F3118810
:1047F00010BD000004ED00E030B595B028216846FA
:10480000FBF727FD14210AA8FBF723FD18210FA8A9
:10481000FBF71FFD01210804CDE9001000240294DC
:1048200002250491CDE907504FF4E0100990684645
:10483000FDF752FD0F20CDE90A056802CDE90C40D5
:1048400002210AA80E94FDF735FCA80311900F95DC
:104850000FA8FDF7BBFB15B030BD00000D48016887
:1048600041F00101016041680B4A1140416001685B
:104870000A4A11400160016821F480210160416809
:1048800021F4FE0141604FF41F0181600449C0031F
:1048900008607047001002400000FFF8FFFFF6FEBE
:1048A00008ED00E00148FEF7E5B8000034070020FD
:1048B000F0B502681C4D1D4E1D4FDFF878C01E4B31
:1048C0004FF0804EA84209D0984207D0704505D0DD
:1048D000B04203D0B84201D0604503D122F0700449
:1048E0004A682243A84209D0984207D0704505D0B3
:1048F000B04203D0B84201D0604503D122F44074E5
:10490000CA6822434C6922F08002224302608A680E
:10491000C2620A688262A84201D0984201D1096944
:10492000016301214161F0BD002C01400004004001
:1049300000080040000C00400034014010B501F0B8
:104940001F010123046A8B409C430462036A8A406E
:104950001343036210BD0000F0B5026A22F00102A9
:104960000262026A43688469114E24F073050C6880
:10497000104F2C4322F002058A682A43B04201D02E
:10498000B84205D122F00805CA682A4322F0040281
:10499000B04201D0B84205D14D6923F440731D43A4
:1049A0008B692B4343608461496841630262F0BDB7
:1049B000002C014000340140F0B5026A22F01002E0
:1049C0000262026A436884690D6824F4E64444EA9A
:1049D00005248D6822F0200242EA05120F4D104E88
:1049E000A84201D0B04206D1CF6822F0800242EA4C
:1049F000071222F04002A84201D0B04207D14D690F
:104A000023F4406343EA85038D6943EA85034360E9
:104A10008461496881630262F0BD0000002C01409E
:104A200000340140F0B5026A22F480720262026A28
:104A30004368C46922F4007224F073050C68124EB6
:104A40002C438D6842EA05220E4DA84201D0B042A7
:104A500006D1CF6822F4006242EA072222F4806283
:104A6000A84201D0B04207D14D6923F4405343EA34
:104A700005138D6943EA05134360C4614968C16346
:104A80000262F0BD002C01400034014030B5026AE2
:104A900022F480520262036A4268C4690D6824F4F9
:104AA000E64444EA05248D6823F4005343EA0533C1
:104AB000084DA84202D0084DA84204D14D6922F405
:104AC000804242EA85124260C4614968016403621F
:104AD00030BD0000002C01400034014010B5194CDD
:104AE00000220821012002F0EFFCE0600028F7D04E
:104AF00000220421012002F0E7FC20600028F7D00A
:104B000000222421012002F0DFFC60600028F7D0A1
:104B100000222C21032002F0D7FCA0600028F7D04F
:104B200000220821012002F0CFFC20610028F7D0EC
:104B300000220421012002F0C7FC60610028F7D0A8
:104B400010BD00001C00002010B5406A0021C18586
:104B5000C184FEF768F910BD70B5446A20684069E9
:104B600094F83910C0F3C0100025212904D118B1E0
:104B7000E584204600F046F82068406994F83A1031
:104B8000C0F38010222904D118B1E585204600F039
:104B90002BF8E06B40F01000E0632046FEF743F98D
:104BA00070BD10B50146406A09680968890613D4CA
:104BB0000021C1850168CA6822F48072CA60016858
:104BC0004A6922F001024A6101684A6922F0400202
:104BD0004A61202180F83A10FEF742FB10BD10B563
:104BE000406AFEF73EFB10BD0168CA6822F490726D
:104BF000CA6001684A6922F001024A61202180F8F6
:104C00003A1070470168CA6822F0C002CA602021C9
:104C100080F83910704710B590F83A10222901D069
:104C2000022010BD8168B1F5805F11D001690029B3
:104C300001681FD0496801F07F03816A4A1C8262C3
:104C40000B70C18D491E0904090CC18518D02BE0D9
:104C50000269816A002A0268526805D0D2B20A80CD
:104C6000816A491C8162ECE7C2F308020A80816A0A
:104C7000891CF7E74A68816A4B1C83620A70E0E787
:104C80000168CA6822F02002CA600168CA6822F47A
:104C90008072CA6001684A6922F001024A612021DB
:104CA00080F83A10FEF7DCFA002010BD2DE9F04143
:104CB000044600680169E26821F440511143016132
:104CC000A16820690143606901432068C26841F21C
:104CD0000C639A430A43C26020684169A26921F4C7
:104CE0004071114341611E49206864253226884283
:104CF00002D1FDF7ABFA01E0FDF798FA00EBC00135
:104D000001EB001160686FF018078000B1FBF0F252
:104D1000B2FBF5F2B1FBF0F37A4303EB8202B1FB95
:104D2000F0F306EB0212B2FBF5F2B3FBF5F302F07F
:104D3000F00202EB0312B1FBF0F3B1FBF0F0B0FBB9
:104D4000F5F0784303EB800006EB0010B0FBF5F0C4
:104D5000216800F00F0010448860BDE8F081000079
:104D60000038014090F83910212901D00220704705
:104D70008168B1F5805F016A0BD04A1C026202684B
:104D800009785160C18C491E0904090CC1840ED0F8
:104D900017E009880268C1F3080151600169002920
:104DA000016A02D0491C0162ECE7891CFBE701683B
:104DB000CA6822F08002CA600068C16841F0400100
:104DC000C160002070472DE9F0411E461746884615
:104DD0000446069D1CE0681C1AD025B1FCF7B6FFFE
:104DE000801BA84214D92068C16821F4D071C16029
:104DF0002068416921F001014161202084F83900D7
:104E000084F83A00002084F838000320BDE8F081DF
:104E10002068016838EA010004D00020B842DAD0E6
:104E20000020F3E70120F9E710B5044800F020F86E
:104E3000BDE810400148FDF7F7BF00006405002001
:104E400010B5044800F014F8BDE810400148FDF723
:104E5000EBBF0000A405002010B5044800F008F8DE
:104E6000BDE810400148FDF7DFBF0000E405002069
:104E700010B5044600680B49884202D12046FCF771
:104E8000E9FF09492068884202D12046FDF774F8FD
:104E900006492068884204D12046BDE81040FCF74E
:104EA000AFBF10BD00380140004400400048004042
:104EB000FEE72DE9F0410D46044617461E46194609
:104EC000001DFFF7F5FA294604F13400FFF7F0FA68
:104ED000394604F1BC00FFF7EBFA6168606B00F043
:104EE000FFF80146207804F18C054FF0FF380128C7
:104EF00050D031462846FFF7DBFA54F8BC5F54F82F
:104F0000306C29463046FBF71AFAA063074628465C
:104F1000A168FBF714FA054654F8281C3046FBF745
:104F20000EFA2946FBF70BFAE56D2946FBF73FFA27
:104F3000E06329463846FBF708FA216CFBF7ADF928
:104F40002064626C82F00041FFF71AFC2064414645
:104F5000606BFBF76AFA0146226BE06BFFF746F8DD
:104F6000216DFBF7F2F90546216CE06CFBF7EDF9DA
:104F70000646D4E90D10226BFFF738F8A16CFBF759
:104F8000E4F93146FBF789F92946FBF786F9A06574
:104F9000BDE8F0816068FBF7D2F9606620F0004060
:104FA000D4F81011FBF7C8FC01D20020F0E7E16B48
:104FB000606B9C34FBF7C3F9064654F8901C54F818
:104FC000980CFBF7BCF93146FBF7B9F9E66F3146AF
:104FD000FBF7EDF944F8340C54F8380C3146FBF784
:104FE000B4F954F8301CFBF758F944F8300C54F875
:104FF0002C2C82F00041FFF7C3FB44F8300C06462E
:1050000054F8341C54F8200CFBF79FF9074654F869
:10501000240C3146FBF799F9064654F8381C54F82D
:10502000280CFBF792F93146FBF737F93946FBF7C5
:1050300034F944F81C0C54E90621FFF7A1FB44F8AD
:105040001C0C01462846FFF733FA54F8106C256A09
:1050500030462946FBF773F9A06507462846A16A42
:10506000FBF76DF9054654F8081C3046FBF767F965
:105070002946FBF764F9E56F2946FBF798F9E065E7
:1050800029463846FBF761F9216EFBF706F92066E1
:10509000626E82F00041FFF773FB20664146606D4F
:1050A000FBF7C3F90146226DE06DFEF79FFF216F0C
:1050B000FBF74BF90546216EE06EFBF746F9064615
:1050C000D4E91510226DFEF791FFA16EFBF73DF9B3
:1050D0003146FBF7E2F82946FBF7DFF8A06757E710
:1050E0002DE9F0478A460546FBF72CF9234CDFF8FB
:1050F000909025F00048A0421ADD5046FBF7BDFB1A
:1051000005460E4651462046FBF719F9FBF7B5FB5D
:1051100004460F464046FBF7B0FB00224B46FBF728
:1051200034FA3B462246FBF78CF92A4633461CE00C
:10513000144988421FD95046FBF79FFB06460F468D
:1051400021465046FBF7A9F8FBF797FB04460D46AE
:105150004046FBF792FB00224B46FBF713FA224630
:105160002B46FBF70FFA32463B46FBF76AF9BDE8E0
:10517000F047FBF7C5BB2846BDE8F0870000344385
:1051800000806640000034C30FB4084B10B504A97A
:1051900002AA039800F06EF9044602A9002000F06C
:1051A00000FD204610BC5DF814FB0000A35B000866
:1051B000490050EAC12018BF04204A0D18BF40F032
:1051C000010040F2FF72B2EB515F08BF40F00200F5
:1051D000012808BF052070470907090E002804DBD5
:1051E00000F1E02080F80014704700F00F0000F19B
:1051F000E02080F8141D70472DE9F0414F1E00EBB0
:10520000C7010446D1E9000115461E4637F00602E3
:105210000DD02A463346FBF7BBF97F1E04EBC703CC
:10522000D3E90023FBF70DF937F00602F1D1022F85
:1052300025D0042F13D0062F18BFBDE8F0812A46D1
:105240003346FBF7A5F9D4E90A23FBF7FAF82A4617
:105250003346FBF79DF9D4E90823FBF7F2F82A4619
:105260003346FBF795F9D4E90623FBF7EAF82A461B
:105270003346FBF78DF9D4E90423FBF7E2F82A461D
:105280003346FBF785F9D4E90223FBF7DAF82A461F
:105290003346FBF77DF9D4E90023BDE8F041FBF785
:1052A000D0B800000022134610460149FBF7E2B9CE
:1052B0000000F03FFBF7C5B8002213461046114628
:1052C000FBF7D8B940F2013200204FF0E041FBF784
:1052D00040BA0000024A00201107FBF73ABA00006A
:1052E00001FDFFFF02E008C8121F08C1002AFAD121
:1052F00070477047002001E001C1121F002AFBD156
:10530000704700000149086070470000C00100209C
:105310002DE9FF5FDDE90220010DDDF838B0024321
:1053200018D044F61050A1F2FF3141430D140F98EC
:10533000012820D0A5EB0B00401C5FEA000A4FF0CB
:105340000004474EDFF81C91A046504616D5CAF11E
:10535000000728E00F98012443A2012808D000216B
:1053600000980F9BC0E90021C0E90243BDE8FF9F00
:105370006FEA0B01F4E7CBF10000DEE7074612E02D
:10538000F80707D02246334640464946FBF700F966
:10539000804689462246334610461946FBF7F8F800
:1053A00004460E467F10002FEAD1DDE90201BAF172
:1053B000000F42464B4602DAFBF7EAF801E0FBF742
:1053C00059F904460E460022284BFBF781FA03D810
:1053D0004FF0FF30014607E00022254B20463146C2
:1053E000FBF72FF8FBF7B8FB102409E0002C0ADBD1
:1053F0000A220023FBF7CAFA019B30321A55641EB9
:1054000050EA0102F2D1641C019AC4F11103144460
:105410000F9A012A03D0012208430DD10AE0084364
:1054200004D000204FF0110B0F9080E7A3EB0B0589
:105430006D1E0DE05B4504DD4FF0000205F1010536
:1054400004E003DA4FF00002A5F10105002AECD0D8
:1054500000980F99C0E90231C0E9004586E70000D5
:10546000000024400000F03F300000000000F04346
:105470000000E03F2DE9FF4F95B09B468946064668
:1054800000250FE2252877D100242746F84A01217C
:10549000059400E0044316F8013F203B01FA03F0B5
:1054A0001042F7D130782A2811D06FF02F033078CE
:1054B000A0F13002092A16D8059A44F0020402EB42
:1054C000820203EB42021044761C0590EFE759F884
:1054D000042B0592002A03DA504244F4005405904C
:1054E00044F00204761C30782E2816D116F8010FED
:1054F00044F004042A280DD06FF02F023078A0F178
:105500003003092B09D807EB870302EB4303C718C5
:10551000761CF3E759F8047B761C30786C280FD0A2
:1055200006DC4C2817D068280DD06A2814D104E076
:10553000742810D07A280FD10DE044F400140AE04A
:1055400044F4801401E044F440147278824202D1A1
:1055500004F58014761C761C307866280BD013DC9A
:10556000582877D009DC002875D04528F6D0462881
:10557000F4D047281AD19DE118E0632835D064287B
:1055800079D0652812D195E1702873D008DC67289E
:10559000F1D069286FD06E280DD06F2806D1B5E004
:1055A00073282CD0752875D0782874D05A4617994E
:1055B00090476D1C75E1C4F30250022809D00328FE
:1055C0000DD0D9F8001004280DD00D6009F10409A0
:1055D00067E1D9F80010EA17C1E90052F6E7D9F8F7
:1055E00000100D80F2E70D70F0E719F8041B8DF83C
:1055F000001000208DF80100EA46012003E059F870
:1056000004AB4FF0FF3061074FF0000102D40DE012
:1056100008F101018846B9420FDA8045F8DB1AF833
:1056200008100029F4D108E008F101018846814200
:10563000FADB1AF808100029F6D105985B46A0EBB2
:10564000080721463846179A00F094FA284400EBE0
:10565000080507E04DE029E10DE01AF8010B5A4674
:1056600017999047B8F10108F7D25B4621463846B2
:10567000179A13E142E00A220092C4F302524FF05B
:10568000000A022A08D059F804CB032A4FEAEC7129
:105690000AD00DE029E02AE009F1070121F0070214
:1056A000F2E802C1914609E00FFA8CFC4FEAEC7176
:1056B000042A03D14FFA8CFC4FEAEC71002907DA77
:1056C0000A460021DCF1000C61EB02012D2202E010
:1056D000220504D52B228DF80420012203E0E207E5
:1056E00001D02022F7E7904659E00A2102E010227B
:1056F0000DE010214FF0000A00910BE010224FF056
:10570000000A44F004040827009203E008224FF046
:10571000000A0092C4F30252022A05D059F804CBC1
:105720000021032A08D009E009F1070121F007024E
:10573000F2E802C1914605E01FFA8CFC042A01D16F
:105740000CF0FF0C4FF00008220728D5702806D077
:10575000009B83F0100353EA0A0305D00EE04022B9
:105760008DF80420012208E05CEA010206D0302214
:105770008DF804208DF8050002229046009B83F0EE
:10578000080353EA0A030AD15CEA010201D1620765
:1057900005D530228DF804204FF001087F1E5828CF
:1057A00004D034A003900EA802900DE036A0F9E7D3
:1057B00053466046009AFBF7E9F884460398825CFA
:1057C0000298401E029002705CEA0100F0D102983B
:1057D00006A9081A00F1200A600702D524F48034D3
:1057E00000E00127574502DDA7EB0A0000E000209A
:1057F00000EB0A01009005984144401A0590E0032F
:1058000006D45B462146179A059800F0B3F9054483
:10581000002706E001A85A46C05D179990476D1C05
:105820007F1C4745F6DBE0030CD55B462146179A03
:10583000059800F09FF9054404E030205A46179976
:1058400090476D1C0099481E00900029F5DC08E087
:10585000029802995A460078491C0291179990477C
:105860006D1CBAF10001AAF1010AF1DC65E100004A
:105870000928010030313233343536373839616226
:1058800063646566000000003031323334353637EA
:1058900038394142434445460000000000F058F9C1
:1058A0000544761C307800287FF4ECAD19B028460A
:1058B000BDE8F08F620700D4062709F1070222F045
:1058C000070CFCE80223E14603F000485FEA080CFD
:1058D00002D00FF2702C0DE05FEA045C02D50FF2EB
:1058E000682C07E05FEAC47C02D00FF2602C01E074
:1058F000AFF2700C4FF0FF3823F00043CDF850C0EA
:1059000065280CD006DC452809D046281DD047283C
:105910003DD13DE0662818D067287ED138E00021CF
:10592000112F01DB112000E0781CCDE9000106A950
:105930000EA8FFF7EDFCDDE90F010E9A039100219F
:10594000009207F1010A04914DE04FF000400097EA
:10595000CDE9011006A90EA8FFF7DAFCDDE90F0278
:1059600003920E9B11990022DDF80CA00093049283
:1059700011B9791C00EB010AB7EB0A0004D4C0F19D
:10598000FF3007F1010A0490AAEB0700019044E000
:10599000012F00DA01270021112F01DD112000E085
:1059A0003846CDE9000106A90EA8FFF7B1FCDDE9F4
:1059B0000F010E9A0391002104910092BA4621072B
:1059C0000CD40399514500DA8A46BAF1010F05DD7E
:1059D000009AAAF10101515C302908D0B84202DADC
:1059E00010F1040F06DA0121CDE9011015E0AAF14A
:1059F0000101E9E7002805DC049901440491AAEBC0
:105A0000000102E0411C514500DD8A460499401A1C
:105A1000401C01904FF000400290200704D40198F0
:105A2000504501DBCDF8048000208DF84F0002982E
:105A30000DF14F07B0F1004F25D02B200E900298AA
:105A40004FF0020800280CDA404202902D200E9000
:105A500007E00A210298FAF783FF3031029007F835
:105A6000011DB8F10001A8F10108F2DC029800283C
:105A7000EFD1791E0E980870307800F0200040F0C9
:105A8000450007F8020D12A8C01B00F10708149882
:105A9000007800B1012000EB0A01019801EBE071F0
:105AA00005984144401A401E0590E00306D45B4629
:105AB0002146179A059800F05DF80544149800787F
:105AC00018B15A46179990476D1CE00324D55B46E0
:105AD0002146179A059800F04DF805441CE00498FB
